{"abi":[{"type":"function","name":"getNumber","inputs":[{"name":"x","type":"uint256","internalType":"uint256"}],"outputs":[{"name":"","type":"uint256","internalType":"uint256"}],"stateMutability":"pure"}],"bytecode":{"object":"0x6080604052348015600f57600080fd5b50609f80601d6000396000f3fe6080604052348015600f57600080fd5b506004361060285760003560e01c8063fc56365814602d575b600080fd5b603f60383660046051565b6063190190565b60405190815260200160405180910390f35b600060208284031215606257600080fd5b503591905056fea2646970667358221220a34ccb061ddd1a3ab6f3c8eb30d4e4a721eb7c123f9488473b4669c9d32202fb64736f6c634300081a0033","linkReferences":{}},"methodIdentifiers":{"getNumber(uint256)":"fc563658"},"id":17}